:030000000201C238
:0100030032CA
:03000B00020136B9
:0100130032BA
:01001B0032B2
:0100230032AA
:03002B0002017659
:10002E00C000788500D8FDD00022C000C00179281C
:10003E007868D8FED9FADAF6D001D00022D294121E
:10004E00002EC29422A2E79283A2E69282A2E592A9
:10005E0081A2E4928012004B12002EA2E39283A2A0
:10006E00E29282A2E19281A2E0928012004B22D211
:10007E0093020053C293020053C294C0027A281214
:10008E000038D0027433120082743312008274323C
:10009E001200827428120082740C120082740112F3
:1000AE000082C0027A02120038D00222E493600667
:1000BE0012007DA380F62244404480020082C0E0FC
:1000CE00E8C4540F443012007DE8540F443012003F
:1000DE007DD0E02254494D452078783A78783A78A8
:1000EE007878780000414C41524D2078783A7878F3
:1000FE00787800414C41524D00414D00504D00204A
:10010E002020202020202020202020202020200001
:10011E003A00438E08E58954F04401F589758CF058
:10012E00758A2CD2A9D28C22C0E0C0D030011130F9
:10013E00020EC28C758CF0758A2CD28CB29780060A
:10014E00758CF0758A2CD0D0D0E03275C80075CD84
:10015E00BF75CC2843C98075CBBF75CA28E4F5306E
:10016E00F531439B80D2CA22C2CFB284C0E0C0D048
:10017E000530E53070020531E530B4E832E531B4D2
:10018E00032DD20030011EE532B53519E533B536F3
:10019E0014E4F5F0A20392F0A20492E0B5F006D2B8
:1001AE0002B28C8002C202E4F530F531120454D052
:1001BE00D0D0E03275817F75B10075B20075B30095
:1001CE0075B40075AD0075AD00120120120159D243
:1001DE00AF120087D20012039ED201C202C0E07499
:1001EE0001141200C5D0E0C083C082C0E09000F3BD
:1001FE001200BAD0E0D082D083C2047406F53574F2
:10020E0000F53602025F80008000209117C0027A4E
:10021E0032120038D00220910B3091FDB201200134
:10022E000302025F209612C0027A32120038D00208
:10023E002096063096FD12048120B015C0027A3247
:10024E00120038D00220B00930B0FD12046502024F
:10025E005FC20012026A1202E0020214C0E07406CB
:10026E00141200C7D0E0C000A8321200CCD000C0DB
:10027E00E07409141200C7D0E0C000A8331200CCFD
:10028E00D000C0E0740C141200C7D0E0C000A83437
:10029E001200CCD00020031DC0E0740E141200C753
:1002AE00D0E0C083C082C0E09001071200BAD0E057
:1002BE00D082D08322C0E0740E141200C7D0E0C0EA
:1002CE0083C082C0E090010A1200BAD0E0D082D082
:1002DE008322200103020381C0E07401141200C5C1
:1002EE00D0E0C083C082C0E09001011200BAD0E01D
:1002FE00D082D083C0E07407141200C5D0E0C000D5
:10030E00A8351200CCD000C0E07409141200C5D07C
:10031E00E0C083C082C0E090011E1200BAD0E0D0CF
:10032E0082D083C0E0740A141200C5D0E0C000A8C9
:10033E00361200CCD00020041DC0E0740C14120044
:10034E00C5D0E0C083C082C0E09001071200BAD0D1
:10035E00E0D082D08322C0E0740C141200C5D0E02D
:10036E00C083C082C0E090010A1200BAD0E0D082F1
:10037E00D08322C0E07401141200C5D0E0C083C047
:10038E0082C0E090010D1200BAD0E0D082D083225C
:10039E00C203C2CA7408F5327400F5337400F53422
:1003AE00C0E07401141200C7D0E0C083C082C0E068
:1003BE009000E21200BAD0E0D082D083209112C019
:1003CE00027A32120038D0022091063091FD0204DA
:1003DE002412026A209512C0027A32120038D0021C
:1003EE002095063095FD120454209612C0027A32E2
:1003FE00120038D0022096063096FD12044320B02B
:10040E0012C0027A32120038D00220B00630B0FD8F
:10041E001204270203CAD2CA22E5322401D4F532CD
:10042E00941240107007753212B2038007E53294B1
:10043E0012D4F53222E5332401D4F533B4600675B7
:10044E00330012042722E5342401D4F534B46006B7
:10045E0075340012044322E5352401D4F535941287
:10046E0040107007753512B2048007E5359412D42A
:10047E00F53522E5362401D4F536B460067536001E
:04048E0012046522CD
:00000001FF
