:030000000201C238
:0100030032CA
:03000B00020136B9
:0100130032BA
:01001B0032B2
:0100230032AA
:03002B0002017659
:10002E00C000788500D8FDD00022C000C00179281C
:10003E007868D8FED9FADAF6D001D00022D294121E
:10004E00002EC29422A2E79283A2E69282A2E592A9
:10005E0081A2E4928012004B12002EA2E39283A2A0
:10006E00E29282A2E19281A2E0928012004B22D211
:10007E0093020053C293020053C294C0027A281214
:10008E000038D0027433120082743312008274323C
:10009E001200827428120082740C120082740112F3
:1000AE000082C0027A02120038D00222E493600667
:1000BE0012007DA380F62244404480020082C0E0FC
:1000CE00E8C4540F443012007DE8540F443012003F
:1000DE007DD0E02254494D452078783A78783A78A8
:1000EE007878780000414C41524D2078783A7878F3
:1000FE00787800414C41524D00414D00504D00204A
:10010E002020202020202020202020202020200001
:10011E003A00438E08E58954F04401F589758CF058
:10012E00758A2CD2A9D28C22C0E0C0D030031130F7
:10013E00040EC28C758CF0758A2CD28CB297800608
:10014E00758CF0758A2CD0D0D0E03275C80075CD84
:10015E00BF75CC2843C98075CBBF75CA28E4F5306E
:10016E00F531439B80D2CA22C2CFB284C0E0C0D048
:10017E000530E53070020531E530B4E832E531B4D2
:10018E00032DD20030031EE532B53519E533B536F1
:10019E0014E4F5F0A20592F0A20692E0B5F006D2B4
:1001AE0004B28C8002C204E4F530F53112046DD035
:1001BE00D0D0E03275817F75B10075B20075B30095
:1001CE0075B40075AD0075AD00120120120159D243
:1001DE00AF120087D201D200C205C202C2CA740891
:1001EE00F5327400F5337400F534C0E07401141266
:1001FE0000C7D0E0C083C082C0E09000E21200BA17
:10020E00D0E0D082D083209112C0027A3212003810
:10021E00D0022091063091FD0202711202CB12051E
:10022E001D209512C0027A32120038D00220950697
:10023E003095FD12046D209612C0027A32120038EB
:10024E00D0022096063096FD12043C20B012C00259
:10025E007A32120038D00220B00630B0FD1203FF01
:10026E00020214D2CAC201D203C204C2067406F537
:10027E00357400F5360202C0800012050812051D05
:10028E002003030202C0209612C0027A32120038F6
:10029E00D0022096063096FD1204DA20B014C00269
:1002AE007A32120038D00220B00830B0FD12049E0F
:1002BE008000C2001202CB120341020286C0E0741B
:1002CE0006141200C7D0E0C000A8321200CCD00035
:1002DE00C0E07409141200C7D0E0C000A8331200A9
:1002EE00CCD000C0E0740C141200C7D0E0C000A83F
:1002FE00341200CCD00020051DC0E0740E14120084
:10030E00C7D0E0C083C082C0E09001071200BAD00F
:10031E00E0D082D08322C0E0740E141200C7D0E069
:10032E00C083C082C0E090010A1200BAD0E0D08231
:10033E00D083222003030203E2C0E07401141200F2
:10034E00C5D0E0C083C082C0E09001011200BAD0D7
:10035E00E0D082D083C0E07407141200C5D0E0C094
:10036E0000A8351200CCD000C0E07409141200C5EC
:10037E00D0E0C083C082C0E090011E1200BAD0E06F
:10038E00D082D083C0E0740A141200C5D0E0C00041
:10039E00A8361200CCD00020061DC0E0740C14123A
:1003AE0000C5D0E0C083C082C0E09001071200BA41
:1003BE00D0E0D082D08322C0E0740C141200C5D0DD
:1003CE00E0C083C082C0E090010A1200BAD0E0D033
:1003DE0082D08322C0E07401141200C5D0E0C08325
:1003EE00C082C0E090010D1200BAD0E0D082D0835E
:1003FE0022300106300203020424E5322401D4F532
:10040E0032941240107007753212B2058007E53231
:10041E009412D4F53222E532B41207753211B205B8
:10042E0080F32499D4F53270EC75321280E73001E6
:10043E000630020302045AE5332401D4F533B460C6
:10044E000A80007533001203FF800022E533700826
:10045E007533591203FF80F32499D4F53380EC30B1
:10046E00010630020302048BE5342401D4F534B4C2
:10047E00600A800075340012043C800022E534705E
:10048E000875345912043C80F32499D4F53480EC69
:10049E003002030204C2E5352401D4F5359412402E
:1004AE00127007753512B2068009E5359412D4F52F
:1004BE0035800022E535B41207753511B20680F38A
:1004CE002499D4F53570EC75351280E730020302AD
:1004DE0004F5E5362401D4F536B4600A800075368D
:1004EE000012049E800022E53670087536591204FB
:1004FE009E80F32499D4F53680EC209111C0027AB7
:10050E0032120038D0022091053091FDB203222024
:10051E008511C0027A32120038D00220850530854E
:04052E00FDB20222F6
:00000001FF
