:030000000201C238
:0100030032CA
:03000B00020136B9
:0100130032BA
:01001B0032B2
:0100230032AA
:03002B0002017659
:10002E00C000788500D8FDD00022C000C00179281C
:10003E007868D8FED9FADAF6D001D00022D294121E
:10004E00002EC29422A2E79283A2E69282A2E592A9
:10005E0081A2E4928012004B12002EA2E39283A2A0
:10006E00E29282A2E19281A2E0928012004B22D211
:10007E0093020053C293020053C294C0027A281214
:10008E000038D0027433120082743312008274323C
:10009E001200827428120082740C120082740112F3
:1000AE000082C0027A02120038D00222E493600667
:1000BE0012007DA380F62244404480020082C0E0FC
:1000CE00E8C4540F443012007DE8540F443012003F
:1000DE007DD0E02254494D452078783A78783A78A8
:1000EE007878780000414C41524D2078783A7878F3
:1000FE00787800414C41524D00414D00504D00204A
:10010E002020202020202020202020202020200001
:10011E003A00438E08E58954F04401F589758CF058
:10012E00758A2CD2A9D28C22C0E0C0D030031130F7
:10013E00040EC28C758CF0758A2CD28CB297800608
:10014E00758CF0758A2CD0D0D0E03275C80075CD84
:10015E00BF75CC2843C98075CBBF75CA28E4F5306E
:10016E00F531439B80D2CA22C2CFB284C0E0C0D048
:10017E000530E53070020531E530B4E832E531B4D2
:10018E00032DD20030031EE532B53519E533B536F1
:10019E0014E4F5F0A20592F0A20692E0B5F006D2B4
:1001AE0004B28C8002C204E4F530F5311205F3D0AE
:1001BE00D0D0E03275817F75B10075B20075B30095
:1001CE0075B40075AD0075AD00120120120159D243
:1001DE00AF120087D201D200C205C202C207C2CA44
:1001EE007408F5327400F5337400F534C0E0740110
:1001FE00141200C7D0E0C083C082C0E09000E212AB
:10020E0000BAD0E0D082D083209012C0027A32128F
:10021E000038D0022090063090FD0202761206B809
:10022E001202D31206A320B012C0027A3212003884
:10023E00D00220B00630B0FD1205F3209612C00297
:10024E007A32120038D0022096063096FD1205C280
:10025E00209212C0027A32120038D002209206305A
:10026E0092FD120585020216D2CAC201D203C20441
:10027E00C2067406F5357400F5360202C58000120A
:10028E00068E1206A32003030202C5209612C00298
:10029E007A32120038D0022096063096FD12066091
:1002AE00209214C0027A32120038D0022092083006
:1002BE0092FD1206248000C2001206B81202D3125A
:1002CE00040702028BC0E07409141200C7D0E0C00C
:1002DE0000A8331200CCD000C0E0740C141200C77A
:1002EE00D0E0C000A8341200CCD00020075580000A
:1002FE00C0E07406141200C7D0E0C000A83212008D
:10030E00CCD00020051EC0E0740E141200C7D0E041
:10031E00C083C082C0E09001071200BAD0E0D08244
:10032E00D083801EC0E0740E141200C7D0E0C083CC
:10033E00C082C0E090010A1200BAD0E0D082D08311
:10034E00800022C0E0740E141200C7D0E0C083C03B
:10035E0082C0E090010D1200BAD0E0D082D083E5C9
:10036E003220052CC0E07406141200C7D0E0C00085
:10037E00F81200CCD000B412C98000C0E07406148C
:10038E001200C7D0E0C00078001200CCD00080B2BE
:10039E002412C0E07406141200C7D0E0C000F81298
:1003AE0000CCD000E5328000B40802800AB4090205
:1003BE00801BB4128D802CC0E07406141200C7D0BE
:1003CE00E0C00078201200CCD000020350C0E074D0
:1003DE0006141200C7D0E0C00078211200CCD00065
:1003EE00020350C0E07406141200C7D0E0C00078BB
:1003FE00121200CCD000020350200303020566C087
:10040E00E07401141200C5D0E0C083C082C0E09039
:10041E0001011200BAD0E0D082D083C0E07409147A
:10042E001200C5D0E0C083C082C0E090011E120051
:10043E00BAD0E0D082D083C0E0740A141200C5D0C6
:10044E00E0C000A8361200CCD0002007558000C0B6
:10045E00E07407141200C5D0E0C000A8351200CC1D
:10046E00D00020061EC0E0740C141200C5D0E0C0EF
:10047E0083C082C0E09001071200BAD0E0D082D0D3
:10048E0083801EC0E0740C141200C5D0E0C083C07F
:10049E0082C0E090010A1200BAD0E0D082D08380F0
:1004AE000022C0E0740C141200C5D0E0C083C082DC
:1004BE00C0E090010D1200BAD0E0D082D083E535B5
:1004CE0020062CC0E07407141200C5D0E0C000F85E
:1004DE001200CCD000B412C98000C0E07407141210
:1004EE0000C5D0E0C00078001200CCD00080B2244D
:1004FE0012C0E07407141200C5D0E0C000F812005C
:10050E00CCD000E5358000B40802800AB409028020
:10051E001BB4128D802CC0E07407141200C5D0E0FD
:10052E00C00078201200CCD0000204AFC0E07407E7
:10053E00141200C5D0E0C00078211200CCD0000209
:10054E0004AFC0E07407141200C5D0E0C0007812EA
:10055E001200CCD0000204AFC0E07401141200C52A
:10056E00D0E0C083C082C0E090010D1200BAD0E08E
:10057E00D082D0830204AF3001063002030205AAF6
:10058E00E5322401D4F53294124010700775321200
:10059E00B2058007E5329412D4F53222E532B41258
:1005AE0007753211B20580F32499D4F53270EC75CB
:1005BE00321280E73001063002030205E0E53324F3
:1005CE0001D4F533B4600A800075330012058580BE
:1005DE000022E533700875335912058580F324998E
:1005EE00D4F53380EC300106300203020611E534F7
:1005FE002401D4F534B4600A80007534001205C2AB
:10060E00800022E53470087534591205C280F32437
:10061E0099D4F53480EC300203020648E535240106
:10062E00D4F535941240127007753512B206800952
:10063E00E5359412D4F535800022E535B4120775F0
:10064E003511B20680F32499D4F53570EC75351258
:10065E0080E730020302067BE5362401D4F536B47A
:10066E00600A8000753600120624800022E536707E
:10067E000875365912062480F32499D4F53680EC89
:10068E00209011C0027A32120038D002209005302C
:10069E0090FDB20322208511C0027A32120038D0AA
:1006AE00022085053085FDB20222209111C0027A0A
:0F06BE0032120038D0022091053091FDB2072290
:00000001FF
