:030000000201B545
:0100030032CA
:03000B00020115DA
:0100130032BA
:01001B0032B2
:0100230032AA
:03002B000201527D
:10002E00C000788500D8FDD00022C000C00179281C
:10003E007868D8FED9FADAF6D001D00022D294121E
:10004E00002EC29422A2E79283A2E69282A2E592A9
:10005E0081A2E4928012004B12002EA2E39283A2A0
:10006E00E29282A2E19281A2E0928012004B22D211
:10007E0093020053C293020053C294C0027A281214
:10008E000038D0027433120082743312008274323C
:10009E001200827428120082740C120082740112F3
:1000AE000082C0027A02120038D00222E493600667
:1000BE0012007DA380F62244404480020082C0E0FC
:1000CE00E8C4540F443012007DE8540F443012003F
:1000DE007DD0E02254696D652078783A78783A7848
:1000EE0078000000416C61726D2078783A78780063
:1000FE0000438E08E58954F04401F589758CF0753E
:10010E008A2CD2A9D28C22C0E0C0D030010EC28C73
:10011E00758CF0758A2CD28CB2978006758CF07522
:10012E008A2CD0D0D0E03275C80075CDBF75CC28E2
:10013E0043C98075CBBF75CA28E4F530F531439BB2
:10014E0080D2CA22C2CFB284C0E0C0D0C001053076
:10015E00E53070020531E530B4E845E531B40340D1
:10016E00D200E532B5350BE533B53606D201B28C89
:10017E008002C201E4F530F531E5342401D4F534C2
:10018E00B4601D753400E5332401D4F533B460102A
:10019E00753300E5322401D4F532B42403753200F0
:1001AE00D001D0D0D0E03275817F75B10075B2002C
:1001BE0075B30075B40075AD0075AD001200FF1279
:1001CE000135D2AF120087C0E07401141200C7D0FF
:1001DE00E0C083C082C0E09000E21200BAD0E0D04E
:1001EE0082D083C0E07401141200C5D0E0C083C079
:1001FE0082C0E09000F21200BAD0E0D082D083D25A
:10020E00007401D4F5327459D4F5337450D4F534E6
:10021E007402D4F5357405D4F536208420C0027AE4
:10022E0032120038D002208414308400C2CAE4F5A1
:10023E0030F531F532F533F534D2CA80033000DAB9
:10024E00C200C0E07406141200C7D0E0C000A8328D
:10025E001200CCD000C0E07409141200C7D0E0C068
:10026E0000A8331200CCD000C0E0740C141200C7EA
:10027E00D0E0C000A8341200CCD000C0E074071447
:10028E001200C5D0E0C000A8351200CCD000C0E0EE
:10029E00740A141200C5D0E0C000A8361200CCD0EB
:0402AE000002022820
:00000001FF
